:100000000C9471010C94A2010C94A2010C94A20115
:100010000C94A2010C94A2010C94A2010C94A201D4
:100020000C94A2010C94DE0D0C94DE0D0C94DE0DEC
:100030000C94A2010C94560F0C94A2010C94A201F2
:100040000C94A2010C94AF110C94A2010C94A20187
:100050000C94A2010C94A2010C94A2010C940C0F1C
:100060000C94A2010C94C5100C949B100C94A2014A
:100070000C94A2010C94A2010C94A2010C94A20174
:100080000C94A2010C94A2010C94A2010C94A20164
:100090000C94A2010C94A2010C94A2010C94E80D02
:1000A0000C94A2010C94A2010C94A2010C94A20144
:1000B0000C94A2010C94A2010C94A2010C94EF10D8
:1000C0000C94A2010C94A2010C94A2010C94711046
:1000D0000C9447100C94A2010C941D100C94F30F77
:1000E0000C94A2010C94E6060C944E050C94571245
:1000F0000C94FA060C948C020C941E070C94A80223
:100100000C9483020C947B020C949E020C943F0589
:100110000C9428070C9486020C9432070C94620508
:100120000C94D0060C94CB010C94CE010C94410796
:100130000C94B6020C940C070C94B2020C94730746
:100140000C94F0060C9469070C9414070C94700539
:100150000C9423080C9404070C94F7010C94960259
:100160000C94BC050C943C080C94F0010C942408ED
:100170000C9477020C94DD010C94CC010C9455077F
:100180000C94AC020C94E1060C9490020C945F0762
:100190000C94A4020C94B1020C949A020C94710277
:1001A0000C940B170C94CD010C94F9040C942402BC
:1001B0000C944B070C947F020C940906020000215A
:1001C00000240027002A002D003000330001010028
:1001D00000040107010A0100002200250028002B6D
:1001E000002E003100340002010000050108010B5F
:1001F00001000020002300260029002C002F0032DF
:1002000000000100000301060109010505050507BD
:100210000508080808020202020A0A080804040481
:1002200004010101010101010103030303030303AD
:1002300003040707070C0C0C0C0C0C0C0C0202023C
:100240000206060606060606060B0B0B0B0B0B0B2F
:100250000B010210202008081020401020408002CE
:1002600001020108040201010204081020408080FC
:100270004020100804020180040201804020100880
:100280000402010804020101020408102040800158
:100290000204081020408000000A0B02090C0D0E19
:1002A0000807030401000000000000000000000037
:1002B000000000000000000000000000000000003E
:1002C00000000012111000000000000000000000FB
:1002D00000000000000000000000000000005712B5
:1002E0000B1711241FBECFEFD1E2DEBFCDBF00E060
:1002F0000CBF12E0A0E0B2E0EAE6F7E300E00BBFDB
:1003000002C007900D92AA39B107D9F727E0AAE9F0
:10031000B2E001C01D92A437B207E1F711E0C0E7D7
:10032000D1E000E006C021970109802FFE010E9464
:100330006618CF36D10780E00807A9F70E943F145E
:100340000C94A31B0C94000020910803260F332764
:10035000331F21323105ECF420915503FC0190E06C
:1003600080E0243069F082E00895A0910803219193
:10037000AC014A515D4FA40FB52FB11D2C930196CE
:10038000861798F380910803680F6093080380E054
:10039000089581E00895089508950895E091E40294
:1003A0008091E302E81730F4F0E0ED53FD4F8081D7
:1003B00090E008958FEF9FEF08959091E40280916F
:1003C000E3022FEF3FEF981748F4E92FF0E0ED53E9
:1003D000FD4F208130E09F5F9093E402C9010895B2
:1003E0008091E3029091E402891B990B0895CF92CA
:1003F000DF92EF92FF920F931F93CF93DF937C01D5
:10040000CB018A0120915B03222389F0EB016B0170
:10041000C40ED51ECC15DD0569F06991D701ED91AB
:10042000FC910190F081E02DC7011995F3CF642F65
:100430000E94A401C801DF91CF911F910F91FF90FD
:10044000EF90DF90CF900895CF93DF931F92CDB7B9
:10045000DEB7698320915B032223F9F020917E03AC
:10046000203258F021E030E0FC013383228390E019
:1004700080E00F90DF91CF91089580915C03E82F89
:10048000F0E0E35AFC4F998190838F5F80935C0387
:1004900080937E0381E090E0ECCF61E0CE01019695
:1004A0000E94A401F7CF8150823108F05AC0E82F92
:1004B000F0E08827E15AFD4F8F4F0C9466187F02B9
:1004C0008302710277027B02B10286028C029002E3
:1004D00096029A029E02A402A802B102AC02B202E3
:1004E000B602809180008F7780938000089580917C
:1004F00080008F7DF9CF80918000877FF5CF84B514
:100500008F7784BD089584B58F7DFBCF8091B00037
:100510008F778093B00008958091B0008F7DF9CFE0
:10052000809190008F778093900008958091900043
:100530008F7DF9CF80919000877FF5CF8091A000CB
:100540008F778093A00008958091A0008F7DF9CFD0
:100550008091A000877FF5CF809120018F778093D5
:1005600020010895809120018F7DF9CF8091200195
:10057000877FF5CFCF93DF93282F30E0F901E9563D
:10058000FD4F8491F901EF5AFD4FD491F901E55FD8
:10059000FD4FC491CC23A1F081110E945302EC2F96
:1005A000F0E0EE0FFF1FEF50FE4FA591B491EC91DC
:1005B000ED2381E090E009F480E0DF91CF91089590
:1005C00080E090E0FACF1F93CF93DF93282F30E0A5
:1005D000F901E956FD4F8491F901EF5AFD4FD4918D
:1005E000F901E55FFD4FC491CC23A9F0162F8111CD
:1005F0000E945302EC2FF0E0EE0FFF1FE952FE4F76
:10060000A591B4918FB7F894EC91111108C0D095D1
:10061000DE23DC938FBFDF91CF911F910895DE2BF6
:10062000F8CF1092550381E08093540310922F036A
:1006300061E084E10E94E30261E085E10E94E3025F
:10064000E9EBF0E080818E7F808380818D7F8083E5
:1006500088E48093B80085E48093BC000895CF932C
:10066000DF9391E09093E5028823B9F0C091B80040
:10067000D091BA008091BC008A7B8093BC0060E07E
:1006800084E10E94E30260E085E10E94E3020E94AF
:100690001103D093BA00C093B800DF91CF910895B1
:1006A000CF93DF9390E0FC01EF5AFD4F2491855FDB
:1006B0009D4FFC0184918823D1F090E0880F991F11
:1006C000FC01E354FE4FA591B491FC01E952FE4FA9
:1006D000C591D49161110EC09FB7F8948C91E22F0F
:1006E000E0958E238C932881E223E8839FBFDF91DE
:1006F000CF9108958FB7F894EC91E22BEC938FBFD4
:10070000F6CF3FB7F8948091BF029091C002A091BC
:10071000C102B091C20226B5A89B05C02F3F19F0B7
:100720000196A11DB11D3FBFBA2FA92F982F882771
:10073000BC01CD01620F711D811D911D42E0660F4C
:10074000771F881F991F4A95D1F70895CF92DF929E
:10075000EF92FF920F931F93CF93DF93D0917E037D
:1007600081E0D13208F09CC0C0917D030E948103DA
:100770006B017C018091550381116CC082E08093F4
:10078000550381E0809354038FEF809353031092BD
:100790005203D0935103ADE5B3E0E1E3F3E080E031
:1007A000D8138DC01092300380913003CC0FC82B2A
:1007B000C093300380912F03813009F084C01092E0
:1007C0002F030E9481036B017C0180913003809391
:1007D000BB008091570390915803A0915903B091A9
:1007E0005A03892B8A2B8B2BA1F00E948103009145
:1007F0005703109158032091590330915A036C19F3
:100800007D098E099F09061717072807390708F47D
:1008100042C08091BC0083FDD8CF85EC8093BC00A2
:100820000E9481036B017C0180915503823009F4A1
:100830004CC0809153038F3F09F469C080915303EA
:10084000803209F466C080915303803309F463C099
:1008500084E026C08091570390915803A0915903DA
:10086000B0915A03892B8A2B8B2B09F483CF0E94DA
:10087000810300915703109158032091590330913F
:100880005A036C197D098E099F0906171707280757
:10089000390708F06FCF809156030E942F0385E03F
:1008A00010925C0310927E0310925B03DF91CF9154
:1008B0001F910F91FF90EF90DF90CF9008959D9141
:1008C00091938F5F6DCF85EEA9CF80915703909163
:1008D0005803A0915903B0915A03892B8A2B8B2B73
:1008E00009F4A2CF0E94810300915703109158038D
:1008F0002091590330915A036C197D098E099F0983
:10090000061717072807390708F08ECFC4CF80E0F5
:10091000C7CF82E0C5CF83E0C3CF0F931F93CF93A0
:10092000DF93162F072FC9E3D7E0AA85BB859C85E7
:1009300021E020935B0390937D0310925C0310925F
:100940007E03ED91FC9111970190F081E02D682FCD
:10095000CD0119958A859B85DC01ED91FC91019073
:10096000F081E02D602F19958A859B85DC01ED9142
:10097000FC910190F081E02D612F1995DF91CF91CD
:100980001F910F910C94A6038F929F92AF92BF92EA
:10099000CF92DF92EF92FF920E9481034B015C01A4
:1009A00084E6C82ED12CE12CF12C0E948103681919
:1009B00079098A099B09683E734081059105A8F36E
:1009C00021E0C21AD108E108F10888EE880E83E020
:1009D000981EA11CB11CC114D104E104F10429F733
:1009E000FF90EF90DF90CF90BF90AF909F908F904F
:1009F0000895AF92BF92CF92DF92EF92FF920F9342
:100A00001F93CF93DF936C017B018B01040F151FA4
:100A1000EB015E01AE18BF08C017D10759F069910C
:100A2000D601ED91FC910190F081E02DC601199560
:100A3000892B79F7C501DF91CF911F910F91FF901D
:100A4000EF90DF90CF90BF90AF900895FC01A08908
:100A5000B1898C91A689B78982FD0FC09C91818D47
:100A60008F5F8F73228D821749F0A18DAE0FBF2F3C
:100A7000B11D5D969C93818F08958C910895FC0122
:100A8000538D448D252F30E0842F90E0821B930BF3
:100A9000541710F0CF96089501970895FC01918D99
:100AA000828D981761F0A28DAE0FBF2FB11D5D969C
:100AB0008C91928D9F5F9F73928F90E008958FEF3E
:100AC0009FEF0895FC01918D828D981731F0828DF2
:100AD000E80FF11D858D90E008958FEF9FEF089549
:100AE000FC01918D228D892F90E0805C9F4F821BAD
:100AF00091098F73992708958BE893E00E94700500
:100B000021E0892B09F420E0822F089588E294E007
:100B10000E94700521E0892B09F420E0822F0895BE
:100B200085EC94E00E94700521E0892B09F420E017
:100B3000822F0895FC01A48DA80FB92FB11DA35ACF
:100B4000BF4F2C91848D90E001968F739927848FED
:100B5000A689B7892C93A089B1898C918370806410
:100B60008C93938D848D981306C00288F389E02DB1
:100B700080818F7D80830895EF92FF920F931F9362
:100B8000CF93DF93EC0181E0888F9B8D8C8D981340
:100B90001AC0E889F989808185FF15C09FB7F8944C
:100BA000EE89FF896083E889F98980818370806498
:100BB00080839FBF81E090E0DF91CF911F910F91E3
:100BC000FF90EF900895F62E0B8D10E00F5F1F4FF2
:100BD0000F731127E02E8C8D8E110CC00FB607FC01
:100BE000FACFE889F989808185FFF5CFCE010E948F
:100BF0009A05F1CFEB8DEC0FFD2FF11DE35AFF4F5E
:100C0000F0829FB7F8940B8FEA89FB89808180621C
:100C1000CFCFCF93DF93EC01888D8823B9F0AA89D9
:100C2000BB89E889F9898C9185FD03C0808186FDA7
:100C30000DC00FB607FCF7CF8C9185FFF2CF8081F6
:100C400085FFEDCFCE010E949A05E9CFDF91CF91CC
:100C50000895F0E0E0E0199480E090E0892B29F01D
:100C60000E94900581110E94000080E090E0892B95
:100C700049F080E090E0892B29F00E94000081116A
:100C80000E9400000E94860581110E94290680E0D2
:100C900090E0892B29F00E947C0581110C940000C2
:100CA00008958F929F92AF92BF92CF92DF92EF9270
:100CB000FF920F931F93CF93DF93EC016A017B01A7
:100CC00020E030E04FE753E4CB01B6010E947A17F1
:100CD0004B015C0120E030E0A9010E948319181645
:100CE0008CF5C501B4010E944D198B01B98020E03B
:100CF00030E0A901C701B6010E94831960E018160F
:100D00000CF061E08B2D0E94E3020F3F110509F00A
:100D1000ECF41127C88161E08C2F0E94500301156B
:100D20001105B9F460E08C2FDF91CF911F910F91E5
:100D3000FF90EF90DF90CF90BF90AF909F908F90FB
:100D40000C94E302C501B4019058CDCF0FEF10E031
:100D5000E1CF0F3F110511F461E0E5CFEC2FF0E09A
:100D6000E956FD4FE491E150E23108F0BCC0F0E0FB
:100D70008827E254F94F8F4F0C946618D006E1068D
:100D8000E606F006FA06730704070C0714071E07A9
:100D90002807320741074B07730755075F076907A5
:100DA00084B5806884BD07BDDF91CF911F910F91FD
:100DB000FF90EF90DF90CF90BF90AF909F908F907B
:100DC000089584B5806284BD08BDEECF8091800017
:100DD0008068809380001093890000938800E4CF9E
:100DE0008091800080628093800010938B0000933C
:100DF0008A00DACF80918000886080938000109311
:100E00008D0000938C00D0CF8091B00080688093DB
:100E1000B0000093B300C8CF8091B000806280938F
:100E2000B0000093B400C0CF8091900080688093A0
:100E300090001093990000939800B6CF8091900095
:100E400080628093900010939B0000939A00ACCF37
:100E50008091900088608093900010939D00009393
:100E60009C00A2CF8091A00080688093A000809118
:100E7000A0008F7B8093A0001093A9000093A8008E
:100E800093CF8091A00080628093A0001093AB006C
:100E90000093AA0089CF8091A00088608093A00071
:100EA0001093AD000093AC007FCF8091200180684B
:100EB00080932001109329010093280175CF809120
:100EC000200180628093200110932B0100932A015E
:100ED0006BCF8091200188608093200110932D01B9
:100EE00000932C0161CF003811050CF035CF1ACFDB
:100EF0008EBD00000DB407FEFDCF8EB50895CF93D3
:100F0000DF93EC0160E088810E94E30288E90E949F
:100F1000780780E00E94780780E00E94780780E0F0
:100F20000E94780780E00E94780761E088810E9433
:100F3000E3028BE891E00197F1F760E088810E947D
:100F4000E30280EE0E94780761E08881DF91CF9113
:100F50000C94E302AF92BF92CF92DF92EF92FF9296
:100F60000F931F93CF93DF93CDB7DEB760970FB684
:100F7000F894DEBF0FBECDBF6C0160E0FC01808144
:100F80000E94E30280E60E9478079E012F5F3F4F98
:100F900079015E0131E1A30EB11C870180E00E945E
:100FA000780790E0B0E0A0E0F80181939193A193DD
:100FB000B1938F01EA15FB0589F761E0F6018081A5
:100FC0000E94E30280E090E0DC01F7014191519141
:100FD000619171917F01BA2FA92F982F8827840FD3
:100FE000951FA61FB71FE017F10779F79C01AD0108
:100FF00066277727CB01621B730B840B950B6096DA
:101000000FB6F894DEBF0FBECDBFDF91CF911F9119
:101010000F91FF90EF90DF90CF90BF90AF90089529
:10102000FC01248131E030935B0320937D03109217
:101030005C0310927E038485682B8FE793E00E9407
:1010400024020C94A603089590E080E008950F9385
:101050001F93CF938C01C62F64600E9410086C2FE1
:101060006B7FC8010E94100883EC90E00197F1F7B4
:10107000CF911F910F9108950F931F93CF93DF93FB
:101080008C01C62FD62FD07FD1606D2F0E94100803
:101090006D2FC8010E94270880E1C89FE00111243C
:1010A000C1606C2FC8010E9410086C2FC8010E94FB
:1010B000270881E090E0DF91CF911F910F91089573
:1010C000FC0101900020E9F73197AF01481B590B53
:1010D000BC0185EC94E00C94F9048F929F92AF923E
:1010E000BF920F931F93CF93DF93CDB7DEB7A19736
:1010F0000FB6F894DEBF0FBECDBF19A2423008F480
:101100004AE08E010F5D1F4F842E912CB12CA12C33
:10111000A50194010E943818E62FB901CA01EA30EE
:10112000F4F4E05DD801EE938D01232B242B252BC5
:1011300079F790E080E0109719F0CD010E946008E7
:10114000A1960FB6F894DEBF0FBECDBFDF91CF9151
:101150001F910F91BF90AF909F908F900895E95C81
:10116000E1CFCF92DF92EF92FF92CF93DF936C01AA
:10117000990FEE08FF08F7FE19C06DE285EC94E0C8
:101180000E94BC05EC0166277727CB016C197D090D
:101190008E099F094AE00E946D088C0F9D1FDF9108
:1011A000CF91FF90EF90DF90CF9008954AE0C70174
:1011B000B601DF91CF91FF90EF90DF90CF900C942C
:1011C0006D084F925F926F927F928F929F92AF9233
:1011D000BF92CF92DF92EF92FF920F931F93CF9324
:1011E0006B017C01742EAC019B010E94881988233D
:1011F00099F08FE392E0CF911F910F91FF90EF90C4
:10120000DF90CF90BF90AF909F908F907F906F9026
:101210005F904F900C94600846015701E894B7F82E
:101220002FEF3FEF4FE75FE7C501B4010E94881938
:1012300081110DC02FEF3FEF4FE75FE7C501B4010C
:101240000E94141718161CF483E492E0D4CF2FEFF9
:101250003FEF4FE75FE4C701B6010E9483191816FC
:101260001CF487E492E0C7CF2FEF3FEF4FE75FEC2E
:10127000C701B6010E94141787FDF3CF20E030E0CC
:10128000A901C701B6010E94141710E000E087FF12
:101290000AC06DE285EC94E00E94BC058C01F7FA6F
:1012A000F094F7F8F094C0E060E070E080E09FE335
:1012B0007C1641F020E030E040E251E40E94DB186F
:1012C000CF5FF6CFA70196010E946F182B013C015A
:1012D0000E9454194B015C014AE00E946D087C0198
:1012E000E00EF11ECC23C1F1C501B4010E94191713
:1012F0009B01AC01C301B2010E946E184B015C015D
:101300006EE285EC94E00E94BC05E80EF91EC15027
:1013100018F120E030E040E251E4C501B4010E9440
:101320007A172B013C010E9454194B01B12CA12CBE
:101330004AE0C501B4010E946D08E80EF91EC5011E
:10134000B4010E9419179B01AC01C301B2010E94B4
:101350006E184B015C01DBCFC701CF911F910F913C
:10136000FF90EF90DF90CF90BF90AF909F908F90C5
:101370007F906F905F904F9008952F923F924F9281
:101380005F926F927F928F929F92AF92BF92CF9215
:10139000DF92EF92FF920F931F93CF93DF93CDB71E
:1013A000DEB766970FB6F894DEBF0FBECDBF698B70
:1013B0007A8B8B8B9C8B49015A0120E030E0A9018C
:1013C000C501B4010E948319A501940118160CF0FF
:1013D0005058C501B4010E94DB180E944D196B01E1
:1013E0007A87698720E030E0A901C501B4010E9435
:1013F000831920E030E044EB53E418160CF01BC1D5
:10140000C501B4010E94DB1829E03CEB49E652E437
:101410000E947A1724E73CEA45E053E40E947A17D9
:101420000E944D197A8369838BE492E00E946008E0
:10143000C6010E94B1088AE592E00E946008898195
:101440009A810E94B10820E030E0A901C501B401F1
:101450000E941417882309F433C386E597E00E949D
:101460007F0788E597E00E947F07B6010D2C000CEE
:10147000880B990B0E941B172B013C012DEC3CECB7
:101480004CE45EE30E947A17AB01BC0182E597E071
:101490000E945106222733272C193D093E832D83B4
:1014A000B901330F880B990B0E941B172DEC3CECF4
:1014B0004CE45EE30E947A17AB01BC01705884E5EE
:1014C00097E00E94510689859A85181619060CF036
:1014D000B6C001E010E060E070E0CB01312C212CBF
:1014E0006B017C01A981BA81A215B3050CF464C11A
:1014F0002DEC3CEC4CE45EE30E946F18A3019201DA
:101500000E947A17AB01BC0182E597E00E94510668
:1015100088E597E00E94AA0762337105810591056D
:101520004CF488E597E00E94AA076D397F4F8F4FF2
:101530009F4F74F788E597E00E94AA074B0188E562
:1015400097E00E947F078D819E81889D9001899DF3
:10155000300D989D300D11243E8B2D8B86E597E044
:101560000E94AA074B015C0186E597E00E947F0775
:10157000B094A09490948094811C911CA11CB11CE7
:1015800029853A85289DD001299DB00D389DB00D43
:101590001124BE87AD878D899E89280E391EBD0115
:1015A000BB0F880B990B0E941B179B01AC01C70155
:1015B000B6010E946F186B017C01AD89BE890A9F3C
:1015C000B0010B9F700D1A9F700D1124072E000C97
:1015D000880B990B0E941B17A70196010E946E1899
:1015E0000E944D19072E000C880B990B0E941B17A7
:1015F0002DEB37E346E855E30E947A174B015C0177
:101600006D897E892D853E85621B730B072E000C2C
:10161000880B990B0E941B1725E93FEB46ED53E31E
:101620000E947A179B01AC01C501B4010E946F189A
:101630000F5F1F4F57CFC501B4019058E3CE22244E
:101640002394312C812C912C5401750164018981E2
:101650009A81092E000CAA0BBB0B8D879E87AF8742
:10166000B88B6D857E858F8598890E941B17A70191
:1016700096010E94831987FD9FC02DEC3CEC4CE441
:101680005EE3C501B4010E946F18A30192010E949C
:101690007A17AB01BC0182E597E00E94510688E50C
:1016A00097E00E94AA0762337105810591054CF409
:1016B00088E597E00E94AA076D397F4F8F4F9F4FB3
:1016C00074F788E597E00E94AA074B0188E597E048
:1016D0000E947F072D813E81289D8001299D100D4C
:1016E000389D100D112486E597E00E94AA074B0152
:1016F0005C0186E597E00E947F07B094A0949094E7
:101700008094811C911CA11CB11CA985BA85A89D3F
:10171000C001A99D900DB89D900D11249E8B8D8BBD
:10172000BC01990F880B990B0E941B179B01AC0100
:10173000C701B6010E946F186B017C01209EB001A9
:10174000219E700D309E700D1124072E000C880B09
:10175000990B0E941B17A70196010E946E180E9408
:101760004D19072E000C880B990B0E941B172DEBAF
:1017700037E346E855E30E947A174B015C01B80154
:101780002D893E89621B730B072E000C880B990B69
:101790000E941B1725E93FEB46ED53E30E947A17A1
:1017A0009B01AC01C501B4010E946F184B015C01A3
:1017B0003FEF231A330A55CF40E050E0BA0182E5EB
:1017C00097E00E94510640E050E060E070E884E558
:1017D00097E00E9451060E94C4048BE692E00E94AA
:1017E000600842E0C701B6010E94E1088CE892E07F
:1017F0000E946008A981BA81BD01BB0F880B990BBB
:101800000E941B17A70196010E946E1842E00E94D9
:10181000E10886E992E00E94600820E030E0A9013A
:1018200069897A898B899C890E941417882309F415
:1018300074C124E73CEA45E053E469897A898B89DD
:101840009C890E947A1769837A838B839C8386E5BF
:1018500097E00E947F0788E597E00E947F074DECA4
:101860005CEC6CE47EE382E597E00E9451064DEC6F
:101870005CEC6CE47EEB84E597E00E94510621E08D
:1018800030E03E872D87412C512C3201530142011B
:101890008DECC82E8CECD82E8CE4E82E8EE3F82E3E
:1018A00029813A814B815C81C501B4010E941417E2
:1018B00018160CF409C1A3019201C701B6010E94D8
:1018C0006F18AB01BC0182E597E00E945106B70199
:1018D000A601705884E597E00E94510688E597E0DC
:1018E0000E94AA076436710581059105BCF388E55D
:1018F00097E00E94AA076D837E838F83988788E58F
:1019000097E00E947F0786E597E00E94AA072B01D7
:101910003C0186E597E00E947F07709460945094A4
:101920004094411C511C611C711CB201052C000C1F
:10193000880B990B0E941B179B01AC01C501B401D8
:101940000E946F184B015C018D859E85AD81BE8123
:101950008A9FB0018B9F700D9A9F700D1124072EE6
:10196000000C880B990B0E941B17A50194010E9483
:101970006E180E944D19072E000C880B990B0E94BF
:101980001B1727E137EB41ED58E30E947A1769876F
:101990007A878B879C878D819E8184199509BC01EC
:1019A000990F880B990B0E941B172CEA35EC47E224
:1019B00057E30E947A179B01AC0169857A858B8574
:1019C0009C850E946F182B013C012D853E852F5F61
:1019D0003F4F3E872D8720E030E040E450E46981AE
:1019E0007A818B819C810E94DB18A50194010E9461
:1019F000831987FD14C023E333E343E75FE3C701A3
:101A0000B6010E94141787FF0AC02AE037ED43E2AF
:101A10005CE3C701B6010E946F186B017C0120E0F6
:101A200030E048EC52E4C501B4010E94DB186D833C
:101A30007E838F83988720E030E048EC52E4698110
:101A40007A818B819C810E94DB1869877A878B87DA
:101A50009C872DEC3CEC4CE45EE3C701B6010E9490
:101A60006E182DEC3CEC4CE45DE30E94DB189B010E
:101A7000AC0169857A858B859C850E946E189B01D7
:101A8000AC016D817E818F8198850E948319181623
:101A90000CF006CF2AE939E949E15EE3C701B60156
:101AA0000E94831918160CF0FBCE2DEC3CEC4CE494
:101AB0005DE3C701B6010E946E186B017C01F0CE98
:101AC000C12CD12C760189CE40E050E0BA0182E5EC
:101AD00097E00E94510640E050E060E070E884E545
:101AE00097E00E94510666960FB6F894DEBF0FBECF
:101AF000CDBFDF91CF911F910F91FF90EF90DF90BD
:101B0000CF90BF90AF909F908F907F906F905F909D
:101B10004F903F902F900C94C40466960FB6F894A3
:101B2000DEBF0FBECDBFDF91CF911F910F91FF9010
:101B3000EF90DF90CF90BF90AF909F908F907F906D
:101B40006F905F904F903F902F90089585ED809318
:101B5000BC008091570390915803A0915903B09114
:101B60005A030796A11DB11D23E0B695A795979539
:101B700087952A95D1F72091BC0024FD03C01092CF
:101B800055030895409157035091580360915903AC
:101B900070915A03452B462B472B69F30097A105FB
:101BA000B10541F025E32A95F1F700000197A1095D
:101BB000B109E1CF809156030C942F031F920F922D
:101BC0000FB60F9211240F900FBE0F901F90189513
:101BD0001F920F920FB60F9211240BB60F922F93F4
:101BE0003F934F935F936F937F938F939F93AF93A5
:101BF000BF93EF93FF938091B900887F803609F4FB
:101C00004DC008F040C0883209F4A9C028F58031E1
:101C100009F49DC0C8F4882309F4FBC0883009F496
:101C200096C0FF91EF91BF91AF919F918F917F915E
:101C30006F915F914F913F912F910F900BBE0F903D
:101C40000FBE0F901F901895883109F488C080321C
:101C500041F78093530314C0803409F49DC040F4CD
:101C60008033B9F38833E9F68093530385ECB0C031
:101C7000803509F485C0883509F496C0883489F622
:101C80000E94A60DCECF883909F48CC038F588376C
:101C900029F050F4883611F0803719F683E08093EC
:101CA000550310922C0357C0883809F47BC0803943
:101CB00019F0803809F0B5CF80912C03803208F0FC
:101CC00071C0E0912C0381E08E0F80932C038091F2
:101CD000BB00F0E0E45FFC4F80833DC0803B39F007
:101CE000E0F4803A09F479C0883A09F09ACF84E0A8
:101CF000809355031092090310920803E0910603A4
:101D0000F091070319958091080381110FC081E0BC
:101D1000809308031092E60209C0803C09F4A6CF24
:101D2000883C09F4A3CF883B09F07BCFE0910903FD
:101D300081E08E0F80930903F0E0EA51FD4F80812E
:101D40008093BB00909109038091080329C0809182
:101D500030038093BB0085EC8093BC0062CF9091F0
:101D6000520380915103981758F5E091520381E096
:101D70008E0F80935203F0E0EF5CFC4F8081E9CF3F
:101D8000E091520381E08E0F809352038091BB005B
:101D9000F0E0EF5CFC4F80839091520380915103FF
:101DA0009817C8F285E8D8CFE091520381E08E0FF2
:101DB000809352038091BB00F0E0EF5CFC4F808386
:101DC0008091540381115CCF81E080932F0384EADA
:101DD0008093BC001092550324CF85EC8093BC0007
:101DE0001092550380912C03803230F4E0912C0343
:101DF000F0E0E45FFC4F108260912C0370E0E09112
:101E00000A03F0910B038CE093E0199510922C03D8
:101E100008CF1092530334CF1F920F920FB60F9238
:101E200011242F933F938F939F93AF93BF938091F0
:101E3000BB029091BC02A091BD02B091BE02309154
:101E4000BA0223E0230F2D3758F50196A11DB11DCD
:101E50002093BA028093BB029093BC02A093BD0270
:101E6000B093BE028091BF029091C002A091C102C6
:101E7000B091C2020196A11DB11D8093BF02909343
:101E8000C002A093C102B093C202BF91AF919F91D3
:101E90008F913F912F910F900FBE0F901F9018952B
:101EA00026E8230F0296A11DB11DD2CF1F920F92DB
:101EB0000FB60F9211240BB60F922F933F934F93AF
:101EC0005F936F937F938F939F93AF93BF93EF93A2
:101ED000FF938091B5029091B602A091B702B091A4
:101EE000B802892B8A2B8B2BD1F19091B40280916F
:101EF00000008927809300008091B5029091B6027E
:101F0000A091B702B091B802181619061A061B065E
:101F10009CF48091B5029091B602A091B702B09165
:101F2000B8020197A109B1098093B5029093B60256
:101F3000A093B702B093B802FF91EF91BF91AF9118
:101F40009F918F917F916F915F914F913F912F91D1
:101F50000F900BBE0F900FBE0F901F9018958091A1
:101F60000002ECEBF1E0E4919FEF90930002E2308D
:101F7000E9F040F4EE2389F0E13091F060E00E9456
:101F8000E302DACFE43049F110F1E530B9F790918E
:101F900073009D7F90937300F1CF10926E00EECF8F
:101FA00090916F009D7F90936F00E8CF90917000AB
:101FB0009D7F9093700091E09093B0009091B1005C
:101FC000987F94609093B1001092B300D7CF909116
:101FD00071009D7F90937100D1CF909172009D7F91
:101FE00090937200CBCF1F920F920FB60F921124D5
:101FF0000BB60F922F933F934F935F936F937F9303
:102000008F939F93AF93BF93EF93FF938BE893E0EE
:102010000E949A05FF91EF91BF91AF919F918F918F
:102020007F916F915F914F913F912F910F900BBED8
:102030000F900FBE0F901F9018951F920F920FB622
:102040000F9211240BB60F922F933F934F935F93F0
:102050006F937F938F939F93AF93BF93EF93FF9370
:102060008BE893E00E942605FF91EF91BF91AF911D
:102070009F918F917F916F915F914F913F912F91A0
:102080000F900BBE0F900FBE0F901F9018951F92D0
:102090000F920FB60F9211240BB60F922F933F930E
:1020A0004F935F936F937F938F939F93AF93BF9360
:1020B000EF93FF9388E294E00E949A05FF91EF91DD
:1020C000BF91AF919F918F917F916F915F914F9150
:1020D0003F912F910F900BBE0F900FBE0F901F904E
:1020E00018951F920F920FB60F9211240BB60F92F4
:1020F0002F933F934F935F936F937F938F939F9310
:10210000AF93BF93EF93FF9388E294E00E9426057C
:10211000FF91EF91BF91AF919F918F917F916F91BF
:102120005F914F913F912F910F900BBE0F900FBE7B
:102130000F901F9018951F920F920FB60F921124B7
:102140000BB60F922F933F934F935F936F937F93B1
:102150008F939F93AF93BF93EF93FF9385EC94E09E
:102160000E949A05FF91EF91BF91AF919F918F913E
:102170007F916F915F914F913F912F910F900BBE87
:102180000F900FBE0F901F9018951F920F920FB6D1
:102190000F9211240BB60F922F933F934F935F939F
:1021A0006F937F938F939F93AF93BF93EF93FF931F
:1021B00085EC94E00E942605FF91EF91BF91AF91CD
:1021C0009F918F917F916F915F914F913F912F914F
:1021D0000F900BBE0F900FBE0F901F9018951F927F
:1021E0000F920FB60F9211240BB60F922F933F93BD
:1021F0004F935F936F937F938F939F93AF93BF930F
:10220000EF93FF93809163050E94BA0220916705C6
:10221000309168052F5F3F4F309368052093670525
:1022200090916605953618F096E09093620590912E
:102230006205943009F466C0B8F49230F1F093303E
:1022400009F444C090916505992309F46BC081118C
:102250007CC080916405882309F463C08091640583
:1022600061E00E94E3025EC0953009F457C09630E9
:1022700049F791E0909333064FC08111E3CF20914D
:102280006705309168052436310528F410926805F9
:1022900010926705D7CF1092330610926605E09131
:1022A000660591E09E0F90936605F0E0209167052A
:1022B00030916805EE0FFF1FEE59FA4F30872783E4
:1022C000109268051092670593E019C0813009F0FB
:1022D000B9CFE091660591E09E0F90936605F0E01E
:1022E0002091670530916805EE0FFF1FEE59FA4FF8
:1022F00030872783109268051092670594E09093C9
:102300006205A0CF882359F22091670530916805B6
:102310002536310508F496CF95E0F1CF811192CFA3
:10232000B5CF2F9AFF91EF91BF91AF919F918F9170
:102330007F916F915F914F913F912F910F900BBEC5
:102340000F900FBE0F901F90189580916405882301
:1023500021F08091640560E084CF2F98E3CF1F9235
:102360000F920FB60F9211240BB60F922F933F933B
:102370004F935F936F937F938F939F93AF93BF938D
:10238000CF93DF93EF93FF938091B302C0917006D8
:10239000D0E087FF23C010928500109284008091C6
:1023A000B3028F5F8093B3028091B302082E000CBA
:1023B000990B8C179D0724F48091B3028C3074F133
:1023C000809184009091850084349C4908F465C014
:1023D0008091840090918500049661C08091B30241
:1023E000082E000C990B8C179D07CCF63091B30288
:1023F00025E03203F0011124EC5CF94F808186FF67
:10240000CECF3091B3023203F0011124EC5CF94FCE
:10241000808160E08F730E94E302C1CF80918400CD
:10242000909185003091B30225E03203F001112430
:10243000EC5CF94F41815281840F951F9093890084
:10244000809388003091B3023203F0011124EC5CD8
:10245000F94F808186FF0CC03091B3023203F00146
:102460001124EC5CF94F808161E08F730E94E302DC
:10247000FF91EF91DF91CF91BF91AF919F918F919C
:102480007F916F915F914F913F912F910F900BBE74
:102490000F900FBE0F901F90189580E49CE99093C9
:1024A0008900809388008FEF8093B302E1CF109270
:1024B00082031092810388EE93E0A0E0B0E0809365
:1024C000830390938403A0938503B093860323E151
:1024D00032E03093800320937F0310928E0310929A
:1024E0008D0380938F0390939003A0939103B093F7
:1024F000920325E232E030938C0320938B0345E373
:1025000051E0509398034093970344E351E0509374
:102510009A034093990340E351E050939C03409306
:102520009B0341E351E050939E0340939D0342E39C
:1025300051E05093A00340939F0346E351E0509332
:10254000A2034093A1031092A4031092A50310923A
:10255000A6031092A70310922B0410922A048093D2
:102560002C0490932D04A0932E04B0932F04309349
:1025700029042093280445ED50E0509335044093FE
:10258000340444ED50E0509337044093360440ED5A
:1025900050E0509339044093380441ED50E050939B
:1025A0003B0440933A0442ED50E050933D04409385
:1025B0003C0446ED50E050933F0440933E0410929B
:1025C0004104109242041092430410924404109269
:1025D000C8041092C7048093C9049093CA04A093BE
:1025E000CB04B093CC043093C6042093C50485EC8F
:1025F00090E09093D2048093D10484EC90E0909387
:10260000D4048093D30480EC90E09093D60480931C
:10261000D50481EC90E09093D8048093D70482ECA9
:1026200090E09093DA048093D90486EC90E0909344
:10263000DC048093DB041092DE041092DF0410921D
:10264000E0041092E1048091070290910802A091A9
:102650000902B0910A0280935A0790935B07A093F6
:102660005C07B0935D0780910B0290910C02A091E2
:102670000D02B0910E0280935E0790935F07A093C6
:102680006007B093610784E08093620787E08093DE
:1026900063071092640784EB8093650786E180935B
:1026A000660788E18093670787E18093680789E17F
:1026B00080936907E0917006EC3008F4A9C08FEFB1
:1026C00080936A07E0917006EC3008F4B2C08FEF97
:1026D00080936B078CE08093390784E280933A07FC
:1026E00086E080933B0785E080933C078FE18093F1
:1026F0003D078EE180933E0783E280933F0782E2AD
:102700008093400785E48093410784E480934207E7
:1027100080E48093450710924A0710924B0710926D
:102720004C0710924D0710924E0710924F071092CF
:10273000500710925107EBE7F6E08FEF9FEFDC01B7
:1027400012821382148215821682178210861186D5
:1027500083879487A587B6878787908BA18BB28B59
:10276000128611821082739627E0E933F20741F74F
:102770008DE090E00E948D19FC011382128287E3A4
:1027800092E091838083118687E2848384E182874B
:1027900084E083871486F0937806E093770610929E
:1027A000790610927A0685E280936305109265059A
:1027B00010927206109271061092740610927306AF
:1027C000109276061092750661E070E090E080E06D
:1027D0000E94B21A0097F1F19093720680937106ED
:1027E0001092740610927306209175063091760649
:1027F000232B11F4FC0110821092760610927506BC
:1028000068E972E080917106909172060C949C1BAD
:1028100081E08E0F80937006E0936A0725E0E29FC7
:10282000F0011124EC5CF94F88EB9BE092838183EB
:1028300049CF81E08E0F80937006E0936B0785E0AF
:10284000E89FF0011124EC5CF94F88EB9BE0928348
:10285000818340CF8091710690917206009711F0AC
:102860000E94291A10927206109271061092760632
:10287000109275061092740610927306089578945B
:1028800084B5826084BD84B5816084BD85B5826075
:1028900085BD85B5816085BD80916E008160809326
:1028A0006E0010928100809181008260809381008F
:1028B000809181008160809381008091800081609F
:1028C000809380008091B10084608093B1008091FA
:1028D000B00081608093B00080919100826080930D
:1028E000910080919100816080939100809190008F
:1028F0008160809390008091A10082608093A1000C
:102900008091A10081608093A1008091A0008160EE
:102910008093A000809121018260809321018091A9
:102920002101816080932101809120018160809349
:10293000200180917A00846080937A0080917A00EF
:10294000826080937A0080917A00816080937A001F
:1029500080917A00806880937A001092C100E091A3
:10296000D504F091D60482E08083E091D104F09107
:10297000D2041082E091D304F091D4048FEC8083D0
:102980001092DD04E091D904F091DA0486E08083AE
:10299000E091D704F091D804808180618083E09138
:1029A000D704F091D804808188608083E091D704B7
:1029B000F091D804808180688083E091D704F09101
:1029C000D80480818F7D808361E080913A070E94E6
:1029D000500360E080913A070E94E30260E080913A
:1029E00039070E9450038FE793E090934407809348
:1029F00043071092E4021092E30210925C031092DB
:102A00007E030E9411038BEC91E090930703809367
:102A100006038CEC91E090930B0380930A0380E013
:102A200090E1A0E0B0E08093460790934707A09321
:102A30004807B09349078AE090E0A0E0B0E08093B7
:102A40004A0790934B07A0934C07B0934D0780E043
:102A500090E0A0E0B0E480934E0790934F07A093DE
:102A60005007B093510760E070E185E00E948D044B
:102A70006FE979E380E00E948D040BE317E0C9E37E
:102A8000D7E04DE3C42E47E0D42E50E4652E52E04B
:102A9000752E66E8862E62E0962E7BECE72E77E0B8
:102AA000F72EF801928181918F01898F9A8F61E0D1
:102AB0000E94500361E08A8D0E9450035E01FDE197
:102AC000AF0EB11CF801958183818D8F9E8F61E0DF
:102AD0000E94500360E08E8D0E94500361E08D8D56
:102AE0000E94E3025FB6F8948091B902811125C07B
:102AF000F3018491F4019491E82FF0E0EE0FFF1FB1
:102B0000E354FE4FA591B4918C91982321F461E098
:102B100085E30E94E30261E085E30E9450038CB5E7
:102B200080618CBD8CB580648CBD61E084E30E94C3
:102B3000500361E083E30E9450038091B9028F5FEC
:102B40008093B9025FBEC7010197F1F760E08D8DF8
:102B50000E94E30288E80E94780783E00E947807D9
:102B600061E08D8D0E94E302C7010197F1F7C50175
:102B70000E947F072296CC16DD0609F092CF0EE563
:102B800017E0CAE5D7E060E0F80181918F010E946B
:102B90005003F7E002361F07B1F70AE517E085E0BA
:102BA000F82E9CE0D92E22E0E22E88898C3008F0A5
:102BB00043C0C88461E08C2D0E9450038889F89E30
:102BC000F0011124EC5CF94F2C2D2F739081907C37
:102BD000922B9083138214826D2D0E945A188D9D22
:102BE000A001112430E020E0BA01620F731FF69EAD
:102BF000F001F79EF00D1124EC5CF94F908196FDE9
:102C000012C02F5F3F4F2C30310571F781110BC07F
:102C100010928000E0928100109285001092840052
:102C2000E6BAE0926F00E889FE9EF0011124EC5CA8
:102C3000F94F8081806480839E858C85F801828B2A
:102C4000938B60E00E94500361E0F80183890E9449
:102C5000500360E0F80183890E94E30221960E5F31
:102C60001F4FF7E00E351F0709F09FCFF894109221
:102C7000200189E08093210180E293E09093290173
:102C8000809328011092250110922401C2E0C09384
:102C900073007894C0936205109266058091630575
:102CA00060E00E94500360E08CE10E945003E091DC
:102CB000D504F091D604C083E091D104F091D20400
:102CC0001082E091D304F091D40480E180831092CB
:102CD000DD04E091D904F091DA0486E08083E0918C
:102CE000D704F091D804808180618083E091D7047B
:102CF000F091D804808188608083E091D704F091BE
:102D0000D804808180688083E091D704F091D80452
:102D100080818F7D80838CE10E94BA02019709F047
:102D200077C020E030E0A90160E070E085EF92E438
:102D30000E94BD0920E030E044EB52EC60E070E01E
:102D40008EEB92E40E94BD0920E030E044EB52E4B7
:102D500060E070E08CEC92E40E94BD092AE939E958
:102D600041E252E460E070E084E393E40E94BD0934
:102D700020E030E044EB52EC60E070E080E792E469
:102D80000E94BD092AE939E941E252E460E070E0BD
:102D900080EA92E40E94BD0920E030E044E353EC75
:102DA00060E070E080EA92E40E94BD092AE939E916
:102DB00041E252EC60E070E080E792E40E94BD09DD
:102DC00020E030E044EB52E460E070E084E393E420
:102DD0000E94BD092AE939E941E252EC60E070E065
:102DE00084EB92E40E94BD0920E030E044EB52EC19
:102DF00060E070E08EEB92E40E94BD0920E030E0DC
:102E000044EB52E460E070E086EE92E40E94BD097B
:102E10000E942C0680CF80917106909172060097D7
:102E200011F00C94291A08950E94561708F481E0B5
:102E30000895E89409C097FB3EF4909580957095AD
:102E400061957F4F8F4F9F4F9923A9F0F92F96E9F6
:102E5000BB279395F695879577956795B795F1116B
:102E6000F8CFFAF4BB0F11F460FF1BC06F5F7F4F08
:102E70008F4F9F4F16C0882311F096E911C077231A
:102E800021F09EE8872F762F05C0662371F096E823
:102E9000862F70E060E02AF09A95660F771F881FF2
:102EA000DAF7880F9695879597F90895990F000896
:102EB000550FAA0BE0E8FEEF16161706E807F9070C
:102EC000C0F012161306E407F50798F0621B730BA7
:102ED000840B950B39F40A2661F0232B242B252B28
:102EE00021F408950A2609F4A140A6958FEF811DCB
:102EF000811D08950E948D170C94FE170E94F017F3
:102F000038F00E94F71720F0952311F00C94E71782
:102F10000C94ED1711240C9432180E940F1870F3C2
:102F2000959FC1F3950F50E0551F629FF001729F6E
:102F3000BB27F00DB11D639FAA27F00DB11DAA1F7D
:102F4000649F6627B00DA11D661F829F2227B00DCA
:102F5000A11D621F739FB00DA11D621F839FA00D55
:102F6000611D221F749F3327A00D611D231F849FA5
:102F7000600D211D822F762F6A2F11249F575040FC
:102F80009AF0F1F088234AF0EE0FFF1FBB1F661F77
:102F9000771F881F91505040A9F79E3F510580F040
:102FA0000C94E7170C9432185F3FE4F3983ED4F387
:102FB000869577956795B795F795E7959F5FC1F7E4
:102FC000FE2B880F911D9695879597F9089597F98F
:102FD0009F6780E870E060E008959FEF80EC0895BF
:102FE00000240A94161617061806090608950024E8
:102FF0000A9412161306140605060895092E039462
:10300000000C11F4882352F0BB0F40F4BF2B11F4D5
:1030100060FF04C06F5F7F4F8F4F9F4F089557FD34
:103020009058440F551F59F05F3F71F04795880F36
:1030300097FB991F61F09F3F79F0879508951216CD
:1030400013061406551FF2CF4695F1DF08C0161679
:1030500017061806991FF1CF86957105610508942A
:103060000895E894BB2766277727CB0197F9089541
:10307000A1E21A2EAA1BBB1BFD010DC0AA1FBB1F7C
:10308000EE1FFF1FA217B307E407F50720F0A21BEE
:10309000B30BE40BF50B661F771F881F991F1A945B
:1030A00069F760957095809590959B01AC01BD0185
:1030B000CF010895991B79E004C0991F961708F075
:1030C000961B881F7A95C9F780950895EE0FFF1F0C
:1030D000881F8BBF0790F691E02D19945058BB279D
:1030E000AA270E9486180C94FE170E94F01738F049
:1030F0000E94F71720F039F49F3F19F426F40C943E
:10310000ED170EF4E095E7FB0C94E717E92F0E940A
:103110000F1858F3BA17620773078407950720F052
:1031200079F4A6F50C9431180EF4E0950B2EBA2F15
:10313000A02D0B01B90190010C01CA01A0011124BD
:10314000FF27591B99F0593F50F4503E68F11A1669
:10315000F040A22F232F342F4427585FF3CF4695FA
:1031600037952795A795F0405395C9F77EF41F161C
:10317000BA0B620B730B840BBAF09150A1F0FF0FE6
:10318000BB1F661F771F881FC2F70EC0BA0F621FD2
:10319000731F841F48F4879577956795B795F795C2
:1031A0009E3F08F0B0CF9395880F08F09927EE0F57
:1031B0009795879508950E94EF180C94FE170E942A
:1031C000F71758F00E94F01740F029F45F3F29F0FC
:1031D0000C94E71751110C9432180C94ED170E94BF
:1031E0000F1868F39923B1F3552391F3951B550BF1
:1031F000BB27AA2762177307840738F09F5F5F4FCA
:10320000220F331F441FAA1FA9F335D00E2E3AF008
:10321000E0E832D091505040E695001CCAF72BD020
:10322000FE2F29D0660F771F881FBB1F2617370771
:103230004807AB07B0E809F0BB0B802DBF01FF27A3
:1032400093585F4F3AF09E3F510578F00C94E71782
:103250000C9432185F3FE4F3983ED4F3869577954B
:103260006795B795F7959F5FC9F7880F911D96955C
:10327000879597F90895E1E0660F771F881FBB1FB8
:10328000621773078407BA0720F0621B730B840B65
:10329000BA0BEE1F88F7E09508950E9454196894C0
:1032A000B1110C94321808950E94171888F09F5796
:1032B00098F0B92F9927B751B0F0E1F0660F771F5A
:1032C000881F991F1AF0BA95C9F714C0B13091F050
:1032D0000E943118B1E008950C943118672F782FAF
:1032E0008827B85F39F0B93FCCF386957795679515
:1032F000B395D9F73EF490958095709561957F4F81
:103300008F4F9F4F08950E94561708F48FEF08952E
:103310000E945617880B990B08950F931F93CF9314
:10332000DF938230910510F482E090E0E091720723
:10333000F091730730E020E0B0E0A0E0309799F41E
:103340002115310509F44AC0281B390B24303105F9
:10335000D8F58A819B816115710589F1FB01938301
:103360008283FE0111C0408151810281138148177F
:103370005907E0F04817590799F4109761F0129631
:103380000C93129713961C933296CF01DF91CF9135
:103390001F910F9108950093720710937307F4CF54
:1033A0002115310551F04217530738F0A901DB010F
:1033B0009A01BD01DF01F801C1CFEF01F9CF909370
:1033C000730780937207CDCFFE01E20FF31F819345
:1033D00091932250310939832883D7CF20917007E8
:1033E00030917107232B41F42091030230910402A4
:1033F00030937107209370072091010230910202EF
:103400002115310541F42DB73EB740910502509189
:103410000602241B350BE0917007F0917107E2174B
:10342000F307A0F42E1B3F0B2817390778F0AC01E7
:103430004E5F5F4F2417350748F04E0F5F1F5093C4
:10344000710740937007819391939FCFF0E0E0E084
:103450009CCFCF93DF930097E9F0FC013297138262
:103460001282A0917207B0917307ED0130E020E065
:103470001097A1F420813181820F931F2091700752
:10348000309171072817390709F061C0F09371076F
:10349000E0937007DF91CF910895EA01CE17DF071F
:1034A000E8F54A815B819E0141155105B1F7E901BB
:1034B000FB83EA8349915991C40FD51FEC17FD078F
:1034C00061F4808191810296840F951FE9019983AF
:1034D0008883828193819B838A83F0E0E0E0129667
:1034E0008D919C9113970097B9F52D913C9111976F
:1034F000CD010296820F931F2091700730917107C2
:103500002817390739F6309751F510927307109242
:103510007207B0937107A0937007BCCFD383C283A7
:1035200040815181840F951FC817D90761F44E5F00
:103530005F4F88819981480F591F518340838A8149
:103540009B81938382832115310509F0B0CFF093DD
:103550007307E09372079ECFFD01DC01C0CF138299
:103560001282D7CF4F925F926F927F928F929F92EB
:10357000AF92BF92CF92DF92EF92FF920F931F9381
:10358000CF93DF938C01009799F4CB01DF91CF911A
:103590001F910F91FF90EF90DF90CF90BF90AF9071
:1035A0009F908F907F906F905F904F900C948D19AB
:1035B000FC01E60FF71F9C0122503109E217F307C7
:1035C00008F4AEC0D901CD91DC911197C617D70789
:1035D00020F1C530D10578F0CE0104978617970702
:1035E00050F0C61BD70B2297C193D1936D937C9358
:1035F000CF010E94291AC801DF91CF911F910F912D
:10360000FF90EF90DF90CF90BF90AF909F908F9002
:103610007F906F905F904F9008955B01AC1ABD0A48
:103620004C018C0E9D1EA0917207B0917307512C16
:10363000412CF12CE12C109731F58091700790917D
:1036400071078815990509F05CC04616570608F001
:1036500058C08091010290910202009741F48DB709
:103660009EB74091050250910602841B950BE81706
:10367000F90708F055C0F0937107E0937007F9015E
:1036800071836083B8CF8D919C91119712966C9045
:10369000129713967C901397A815B90559F56C01EC
:1036A00042E0C40ED11CCA14DB0420F1AC014A195B
:1036B0005B09DA011296159780F06282738251835A
:1036C0004083D9016D937C93E114F10471F0D7012B
:1036D0001396FC93EE9312978ECF22968C0F9D1F1C
:1036E000F90191838083F301EFCFF0937307E093A7
:1036F000720781CF4816590608F42C017D01D301C9
:103700009ACFCB010E948D197C01009749F0AE0140
:10371000B8010E94931BC8010E94291A87016BCF30
:1037200010E000E068CFFB01DC0102C001900D92C7
:1037300041505040D8F70895FB01DC0101900D92F3
:103740000020E1F7089511E0C0E7D1E000E006C0F5
:10375000802FFE010E9466182196011DC137D107F6
:0A37600080E00807A9F7F894FFCFF6
:10376A00FF000074078000363738391B1D1A1C0009
:10377A000000002402F7012408CD01F001DD01CE8A
:10378A000100000000BC05F9043F05090670054E5A
:10379A00056205000000003C08F904240823086EAD
:1037AA00616E00696E66006F76660053656E7372AD
:1037BA006F746174696F6E20200020206172635FEC
:1037CA00656E5F70756C73652020002020736F6DC5
:1037DA006D655F70756C73655F6761756368655F5A
:1037EA00726F746174696F6E3A20200020204469F8
:0A37FA0066663D2020000D0A000065
:00000001FF
